:1000000012C019C018C017C016C015C014C013C044
:1000100012C011C010C00FC00EC00DC00CC00BC06C
:100020000AC009C008C011241FBECFE5D4E0DEBF5E
:10003000CDBF51D07FC2E4CFCF93DF9300D0CDB7F7
:10004000DEB79A83898389E290E02981FC012083CD
:1000500080E490E029813A81232F3327FC0120831B
:1000600080E490E026E8FC0120838AE290E028E129
:10007000FC0120830F900F90DF91CF910895CF93D3
:10008000DF93CDB7DEB700008BE290E0FC0180810A
:100090008823D4F78CE290E0FC018081DF91CF913E
:1000A0000895CF93DF931F92CDB7DEB78983000009
:1000B0008BE290E0FC018081882F90E0807299278C
:1000C000892BB1F38CE290E02981FC0120830F9011
:1000D000DF91CF910895CF93DF93CDB7DEB76E97C1
:1000E0000FB6F894DEBF0FBECDBF8EE1898381E3EA
:1000F00090E021E330E0F90120812260FC012083BF
:1001000083E390E099DF87E390E02FEFFC01208309
:1001100088E390E028E330E0F90120812160FC01D0
:10012000208380E090E0A8ECB2E48B839C83AD83D5
:10013000BE8320E030E04AE755E46B817C818D810D
:100140009E816DD1DC01CB018F839887A987BA8707
:1001500020E030E040E85FE36F81788589859A850B
:10016000DDD088232CF481E090E09C878B873BC016
:1001700020E03FEF4FE757E46F81788589859A85C6
:100180004AD118163CF520E030E040E251E46B81A2
:100190007C818D819E8143D1DC01CB01BC01CD01ED
:1001A000C1D0DC01CB019C878B870FC080E991E037
:1001B0009E878D878D859E850197F1F79E878D8718
:1001C0008B859C8501979C878B878B859C85892B4C
:1001D00069F713C06F81788589859A85A3D0DC0182
:1001E000CB019C878B878B859C85988B8F878F8590
:1001F00098890197F1F7988B8F8788E390E028E33F
:1002000030E0F90120812E7FFC01208380E090E026
:10021000A8ECB2E4898B9A8BAB8BBC8B20E030E0EE
:100220004AE755E469897A898B899C89F8D0DC0191
:10023000CB018D8B9E8BAF8BB88F20E030E040E8F8
:100240005FE36D897E898F89988D68D088232CF42F
:1002500081E090E09A8F898F3BC020E03FEF4FE72D
:1002600057E46D897E898F89988DD5D018163CF515
:1002700020E030E040E251E469897A898B899C89E9
:10028000CED0DC01CB01BC01CD014CD0DC01CB01D7
:100290009A8F898F0FC080E991E09C8F8B8F8B8D17
:1002A0009C8D0197F1F79C8F8B8F898D9A8D01978B
:1002B0009A8F898F898D9A8D892B69F713C06D89E3
:1002C0007E898F89988D2ED0DC01CB019A8F898F02
:1002D000898D9A8D9E8F8D8F8D8D9E8D0197F1F7D3
:1002E0009E8F8D8F89818A838A81DBDE89818F5FF2
:1002F0008983898199E28902912D1124292F2595DD
:10030000259525952595982F990F990B291B94E6EE
:10031000299F902D1124891B8983FACE2FD008F4B0
:1003200081E0089557D088F09F5790F0B92F992712
:10033000B751A0F0D1F0660F771F881F991F1AF0F0
:10034000BA95C9F712C0B13081F05ED0B1E008951E
:100350005BC0672F782F8827B85F39F0B93FCCF39F
:10036000869577956795B395D9F73EF490958095E6
:10037000709561957F4F8F4F9F4F0895990F00089B
:10038000550FAA0BE0E8FEEF16161706E807F90767
:10039000C0F012161306E407F50798F0621B730B02
:1003A000840B950B39F40A2661F0232B242B252B83
:1003B00021F408950A2609F4A140A6958FEF811D26
:1003C000811D089557FD9058440F551F59F05F3F08
:1003D00071F04795880F97FB991F61F09F3F79F067
:1003E00087950895121613061406551FF2CF4695E9
:1003F000F1DF08C0161617061806991FF1CF86956B
:100400007105610508940895E894BB27662777274E
:10041000CB0197F90895B2DF08F48FEF08950BD060
:1004200078C069D028F06ED018F0952309F05AC032
:100430005FC01124EACFC6DFA0F3959FD1F3950FDB
:1004400050E0551F629FF001729FBB27F00DB11D58
:10045000639FAA27F00DB11DAA1F649F6627B00DE8
:10046000A11D661F829F2227B00DA11D621F739FD1
:10047000B00DA11D621F839FA00D611D221F749FDF
:100480003327A00D611D231F849F600D211D822F26
:10049000762F6A2F11249F5750408AF0E1F088236D
:1004A0004AF0EE0FFF1FBB1F661F771F881F91507A
:1004B0005040A9F79E3F510570F014C0A6CF5F3F92
:1004C000ECF3983EDCF3869577956795B795F795AD
:1004D000E7959F5FC1F7FE2B880F911D9695879535
:1004E00097F9089597F99F6780E870E060E00895B4
:1004F0009FEF80EC089500240A941616170618063C
:100500000906089500240A94121613061406050617
:100510000895092E0394000C11F4882352F0BB0FA8
:1005200040F4BF2B11F460FF04C06F5F7F4F8F4F0B
:080530009F4F0895F894FFCFDE
:00000001FF
