:1000000012C021C020C01FC01EC01DC01CC01BC00C
:100010001AC019C018C017C016C015C014C013C02C
:1000200012C011C010C011241FBECFE5D4E0DEBF46
:10003000CDBF20E0A0E6B0E001C01D92A136B2071E
:10004000E1F702D03EC0DCCFCF93DF93CDB7DEB770
:1000500081E390E022E0FC0120838BE290E0FC0150
:1000600010828AE290E028E1FC01208380E490E0A5
:1000700026E8FC01208389E290E023E3FC01208351
:100080008CE290E021E4FC01208300008BE290E010
:10009000FC018081882F90E080729927892BB1F331
:1000A0008CE290E022E4FC01208300008BE290E0EF
:1000B000FC018081882F90E080729927892BB1F311
:0600C000EFCFF894FFCF22
:00000001FF
