:100000000C942A000C9434000C9434000C943400AA
:100010000C9434000C9434000C9434000C94340090
:100020000C9434000C9434000C9434000C94340080
:100030000C9434000C9434000C9434000C94340070
:100040000C9434000C9434000C9434000C94340060
:100050000C94340011241FBECFE5D8E0DEBFCDBF25
:100060000E9436000C9447000C9400008FEF84BB74
:1000700085BBEFE4F3EC3197F1F700C0000015BA4F
:10008000EFE4F3EC3197F1F700C00000F1CFF89402
:02009000FFCFA0
:00000001FF
