:1000000012C019C018C017C016C015C014C013C044
:1000100012C011C010C00FC00EC00DC00CC00BC06C
:100020000AC009C008C011241FBECFE5D4E0DEBF5E
:10003000CDBF02D05BC0E4CFCF93DF9300D0CDB76C
:10004000DEB781E390E02FEFFC01208382E390E0B4
:10005000FC01108286E290E025E8FC01208387E223
:1000600090E025E0FC01208386E290E020E4FC01A2
:100070002083000086E290E0FC018081882F90E0E0
:1000800080749927892BB1F784E290E0FC0180818C
:1000900091819A83898389819A818130924098F0F5
:1000A00082E390E022E330E0F90120812F77FC0128
:1000B000208382E390E022E330E0F9012081206494
:1000C000FC01208312C082E390E022E330E0F901DA
:1000D00020812068FC01208382E390E022E330E06D
:1000E000F90120812F7BFC012083BECFF894FFCF44
:00000001FF
